:1000000019C033C032C031C030C02FC02EC02DC087
:100010002CC02BC02AC029C028C027C026C025C09C
:100020002ECD23C022C021C020C01FC01EC01DC0B5
:100030001CC01BC011241FBECFEFD4E0DEBFCDBF5C
:1000400011E0A0E0B1E0E8E9FCE102C005900D920A
:10005000A431B107D9F721E0A4E1B1E001C01D92BC
:10006000A739B207E1F7F5DD15CECACFFDCD04CE35
:10007000CF93DF93399A389A3D9A3C9A3A9A3B9AB1
:1000800081E190E0F3DF823008F0B6C090E0909319
:100090004901809348018091480190914901892B41
:1000A00009F098C0CCE0D0E01AB860E170E080E0E0
:1000B00090E054DD509A60E170E080E090E04EDD29
:1000C000219791F790E080E0D1DF90E090930F01CD
:1000D00080930E0181E090E0C9DF90E090930D01E4
:1000E00080930C0182E090E0C1DF90E090930B01DF
:1000F00080930A0183E090E0B9DF90E090930901DA
:100100008093080184E090E0B1DF90E090930701D4
:100110008093060185E090E0A9DF90E090930501CF
:10012000809304018DE090E0A1DF90E090930301C3
:10013000809302018EE090E099DF90E090930101BE
:100140008093000186E090E091DF90E090934D0174
:1001500080934C0187E090E089DF90E09093450127
:100160008093440188E090E081DF90E09093430128
:100170008093420189E090E079DF90E09093410123
:10018000809340018AE090E071DF90E090933F011E
:1001900080933E018BE090E069DF90E090933D0119
:1001A00080933C018CE090E061DF90E090933B0114
:1001B00080933A018FE090E059DF90E0909339010D
:1001C0008093380180E190E051DF90E09093370117
:1001D000809336018091480190914901019739F44B
:1001E000509A68EE73E080E090E0B8DC1AB88CE0DA
:1001F00087B9DF91CF91089510924901109248017B
:1002000060E081E190E033DF46CFA0915C01B091E6
:100210005D011196B0935D01A0935C01E0915A01DC
:10022000F0915B013196F0935B01E0935A0160918C
:100230005801709159016F5F7F4F7093590160931E
:10024000580140915601509157014F5F5F4F5093B5
:1002500057014093560120915401309155012F5F71
:100260003F4F30935501209354018091520190915A
:10027000530101969093530180935201129724F0F9
:1002800010925D0110925C01339724F010925B0193
:1002900010925A016430710524F0109259011092A5
:1002A00058014630510524F0109257011092560122
:1002B0002830310524F010925501109254010A970C
:1002C00024F01092530110925201809144019091B8
:1002D00045018130910561F480915C0190915D014F
:1002E0001816190674F010927F0110927E0109C051
:1002F00082309105C9F480915A0190915B01029777
:1003000094F380914201909143018130910589F5E8
:1003100080915C0190915D01181619069CF1109274
:100320007D0110927C012EC08330910529F48091CB
:10033000580190915901E3CF8430910539F48091AF
:10034000560190915701039774F2DBCF85309105E8
:1003500039F48091540190915501049724F2D1CF42
:10036000069779F6809152019091530105974CF6CA
:10037000BACF82309105C9F480915A0190915B0106
:1003800002976CF28091400190914101813091057A
:1003900099F580915C0190915D0118161906ACF1F8
:1003A00010927B0110927A0130C08330910529F4BC
:1003B0008091580190915901E3CF8430910541F427
:1003C000809156019091570103970CF4A8CFDACF92
:1003D0008530910541F48091540190915501049725
:1003E0000CF49DCFCFCF069769F680915201909182
:1003F000530105973CF693CF82309105C9F4809163
:100400005A0190915B0102975CF280913E019091BC
:100410003F018130910599F580915C0190915D01DA
:1004200018161906ACF1109285011092840130C0A3
:100430008330910529F48091580190915901E3CFBF
:100440008430910541F480915601909157010397B2
:100450000CF4A6CFDACF8530910541F48091540198
:100460009091550104970CF49BCFCFCF069769F676
:10047000809152019091530105973CF691CF8230C3
:100480009105C9F480915A0190915B0102975CF249
:1004900080913C0190913D018130910599F58091C9
:1004A0005C0190915D0118161906ACF11092830160
:1004B0001092820130C08330910529F48091580157
:1004C00090915901E3CF8430910541F48091560118
:1004D0009091570103970CF4A6CFDACF85309105A0
:1004E00041F4809154019091550104970CF49BCFF5
:1004F000CFCF069769F680915201909153010597ED
:100500003CF691CF82309105C9F480915A019091C7
:100510005B0102975CF280913A0190913B0181303E
:10052000910599F580915C0190915D01181619066D
:10053000ACF1109281011092800130C0833091059E
:1005400029F48091580190915901E3CF84309105AD
:1005500041F4809156019091570103970CF4A6CF76
:10056000DACF8530910541F4809154019091550185
:1005700004970CF49BCFCFCF069769F68091520178
:100580009091530105973CF691CF82309105C9F4C3
:1005900080915A0190915B0102975CF28091380141
:1005A000909139018130910599F580915C0190918C
:1005B0005D0118161906ACF11092790110927801BC
:1005C00030C08330910529F48091580190915901F0
:1005D000E3CF8430910541F4809156019091570109
:1005E00003970CF4A6CFDACF8530910541F48091C2
:1005F00054019091550104970CF49BCFCFCF0697EF
:1006000069F6809152019091530105973CF691CF84
:1006100082309105C9F480915A0190915B01029753
:100620005CF280913601909137018130910599F506
:1006300080915C0190915D0118161906ACF1109241
:1006400077011092760130C08330910529F48091B2
:10065000580190915901E3CF8430910541F4809184
:1006600056019091570103970CF4A6CFDACF85304D
:10067000910541F4809154019091550104970CF437
:100680009BCFCFCF069769F680915201909153018D
:1006900005973CF691CF8230910539F480915A014B
:1006A00090915B0102975CF208958330910529F4E3
:1006B0008091580190915901F5CF8430910541F412
:1006C000809156019091570103970CF4B8CF08958B
:1006D0008530910541F48091540190915501049722
:1006E0000CF4ADCF08950697F9F6809152019091E0
:1006F000530105970CF4A3CFD7CFCF93DF93E091AD
:100700007C01F0917D01A0917E01B0917F0160910B
:100710007A0170917B014091840150918501209173
:100720008201309183018091800190918101E230BA
:10073000F105D9F0A230B105C1F062307105A9F020
:100740004230510591F02230310579F08230910527
:1007500061F0C0917801D0917901229731F0C09178
:100760007601D0917701229749F4C0916801D09128
:100770006901C160D0936901C0936801633071055C
:10078000D9F0E330F105C1F0A330B105A9F0433051
:10079000510591F02330310579F08330910561F0F6
:1007A000C0917801D0917901239731F0C091760101
:1007B000D0917701239749F4C0916801D0916901E4
:1007C000C260D0936901C093680144305105D9F0EB
:1007D000E430F105C1F0A430B105A9F06430710531
:1007E00091F02430310579F08430910561F0C091A9
:1007F0007801D0917901249731F0C0917601D091A0
:100800007701249749F4C0916801D0916901C460CF
:10081000D0936901C0936801C0917401D0917501B2
:10082000219749F4C0916801D0916901C860D093C3
:100830006901C093680186309105D9F0E630F10571
:10084000C1F0A630B105A9F06630710591F04630CF
:10085000510579F02630310561F0C0917801D091D1
:100860007901269731F0C0917601D09177012697D2
:1008700049F4C0916801D0916901C061D0936901C8
:10088000C093680125303105D9F0E530F105C1F09C
:10089000A530B105A9F06530710591F045305105DD
:1008A00079F08530910561F0C0917801D09179019E
:1008B000259731F0C0917601D0917701259749F4C1
:1008C000C0916801D0916901C062D0936901C09361
:1008D0006801C0918C01D0918D01219749F4C0919C
:1008E0006601D0916701C260D0936701C093660131
:1008F0002730310509F1E730F105F1F0A730B105F6
:10090000D9F067307105C1F047305105A9F0873043
:10091000910591F0C0917801D0917901279761F00C
:10092000C0917601D0917701279731F0C091720183
:10093000D0917301219749F4C0916601D09167016C
:10094000C460D0936701C0936601C0918A01D091C1
:100950008B01219749F4C0916601D0916701C06174
:10096000D0936701C0936601C0918801D09189013D
:10097000219749F4C0916601D0916701C062D0937C
:100980006701C0936601C0918601D09187012197CC
:1009900049F4C0916601D0916701C064D0936701AA
:1009A000C09366011197C9F03197B9F061307105B4
:1009B000A1F04130510589F02130310571F00197E6
:1009C00061F08091780190917901019731F08091E7
:1009D000760190917701019749F480916601909199
:1009E000670180689093670180936601DF91CF91E2
:1009F0000895809124019091250190933501809371
:100A000034018091220190912301909333018093CE
:100A100032018091200190912101909331018093C6
:100A2000300180911E0190911F0190932F018093BE
:100A30002E0180911C0190911D0190932D018093B6
:100A40002C0180911A0190911B0190932B018093AE
:100A50002A018091180190911901909329018093A6
:100A6000280180911601909117019093270180939E
:100A700026018091740190917501909315018093E6
:100A8000140110926901109268011092670110928E
:100A9000660110928D0110928C0110928B011092C0
:100AA0008A01109289011092880110928701109298
:100AB00086011092730110927201109275011092CA
:100AC0007401109251011092500110922501109260
:100AD0002401109223011092220110922101109200
:100AE000200110921F0110921E0110921D01109200
:100AF0001C0110921B0110921A0110921901109200
:100B00001801109217011092160110927F01109295
:100B10007E0110927D0110927C0110927B01109257
:100B20007A01109285011092840110928301109233
:100B3000820110928101109280011092790110922D
:100B40007801109277011092760183E790E43CD807
:100B50008BEF88B985E090E037D886B18071282F77
:100B600030E030936B0120936A0196B19072292F87
:100B700030E030936D0120936C0126B12170422F3B
:100B800050E050936F0140936E0136B13270432FA5
:100B900050E05093710140937001311177C141E0F1
:100BA00050E050938D0140938C01211174C121E0DC
:100BB00030E030938B0120938A01911171C121E0C3
:100BC00030E0309389012093880181116EC181E06A
:100BD00090E0909387018093860189E290E0F4D7BA
:100BE00087EF88B981E090E0EFD786B1807190E01F
:100BF00090936B0180936A0186B1807290E090932C
:100C00006D0180936C0186B18170282F30E03093A4
:100C10006F0120936E0196B19270292F30E03093CE
:100C2000710120937001911145C12091060130910D
:100C30000701309383012093820121E030E030935B
:100C40001D0120931C0181113EC1809104019091EE
:100C50000501909381018093800181E090E0909361
:100C60001B0180931A0180916C0190916D01892B79
:100C700009F032C18091080190910901909385019A
:100C80008093840181E090E090931F0180931E0186
:100C900080916A0190916B01892B09F026C181E056
:100CA00090E0909375018093740183EF88B981E09F
:100CB00090E08AD786B1807190E090936B01809329
:100CC0006A0186B1807290E090936D0180936C010F
:100CD00086B18170282F30E030936F0120936E0130
:100CE00096B19270292F30E03093710120937001FA
:100CF000911100C120910A0130910B0130937B01C9
:100D000020937A0121E030E03093210120932001EB
:100D10008111F9C080910C0190910D0190937D019A
:100D200080937C0181E090E09093230180932201E5
:100D300080916C0190916D01892B09F0EDC080913B
:100D40000E0190910F0190937F0180937E0181E0CD
:100D500090E0909325018093240180916A01909105
:100D60006B01892B09F0E1C0809100019091010194
:100D7000909377018093760181E090E09093170142
:100D80008093160180E490E01FD78FEF88B98AE541
:100D900090E01AD726B12071822F90E090936B01DA
:100DA00080936A0186B1807290E090936D01809388
:100DB0006C0136B13170832F90E090936F01809376
:100DC0006E0186B1827090E0909371018093700102
:100DD000332321F010924B0110924A012111AEC031
:100DE00080910201909103019093790180937801A1
:100DF00081E090E090931901809318018091240183
:100E0000909125012091220130912301820F931F9F
:100E10002091200130912101820F931F20911E010A
:100E200030911F01820F931F20911C0130911D01F1
:100E3000820F931F20911A0130911B01820F931F83
:100E40009093510180935001209118013091190124
:100E5000280F391F4091160150911701240F351F9B
:100E600030934F0120934E01039779F480917401E0
:100E7000909175018130910541F4909373018093B5
:100E800072011092750110927401089510928D01F3
:100E900010928C018ACE10928B0110928A018DCE15
:100EA000109289011092880190CE109287011092C1
:100EB000860193CE109283011092820110921D013F
:100EC00010921C01C0CE10928101109280011092EC
:100ED0001B0110921A01C7CE109285011092840155
:100EE00010921F0110921E01D3CE10927501109224
:100EF0007401DBCE10927B0110927A0110922101D5
:100F00001092200105CF10927D0110927C01109269
:100F10002301109222010CCF10927F0110927E01CA
:100F2000109225011092240118CF1092770110928F
:100F30007601109217011092160124CF10927901B8
:100F400010927801109219011092180157CF8BEF6F
:100F500088B980E590E038D68FE788B982E090E0E4
:100F600033D686B1807190E090936B0180936A01D3
:100F700086B1807290E090936D0180936C0186B190
:100F80008170282F30E030936F0120936E0196B16D
:100F90009270292F30E030937101209370019111EC
:100FA00008C0811106C081E090E090934B018093CE
:100FB0004A0160E170E080E090E0D0C5CF93DF931C
:100FC0008091180190911901019709F05AC18091FF
:100FD000160190911701019709F053C18091740196
:100FE00090917501019709F04CC180912801909171
:100FF0002901019709F045C18091260190912701AF
:10100000019709F03EC1809114019091150101975B
:1010100009F037C180914601909147010196909364
:10102000470180934601209146013091470180910C
:10103000100190911101281739070CF4B1C01092DA
:101040004701109246018091480190914901019613
:10105000909349018093480102970CF417C11092B4
:10106000490110924801CCE0D0E01AB860E170E08C
:1010700080E090E073D5509A60E170E080E090E00D
:101080006DD5219791F790E080E0F0D790E09093B4
:101090000F0180930E0181E090E0E8D790E09093FB
:1010A0000D0180930C0182E090E0E0D790E09093F6
:1010B0000B0180930A0183E090E0D8D790E09093F1
:1010C00009018093080184E090E0D0D790E09093EC
:1010D00007018093060185E090E0C8D790E09093E7
:1010E0000501809304018DE090E0C0D790E09093DB
:1010F0000301809302018EE090E0B8D790E09093D6
:1011000001018093000186E090E0B0D790E09093D9
:101110004D0180934C0187E090E0A8D790E0909338
:1011200045018093440188E090E0A0D790E090933F
:1011300043018093420189E090E098D790E090933A
:101140004101809340018AE090E090D790E0909335
:101150003F0180933E018BE090E088D790E0909330
:101160003D0180933C018CE090E080D790E090932B
:101170003B0180933A018FE090E078D790E0909324
:1011800039018093380180E190E070D790E090932E
:101190003701809336016091480181E190E067D783
:1011A00040917401509175014130510509F0C5C05D
:1011B0008091500190915101029709F0BEC0809139
:1011C000140190911501019709F0B7C08091480171
:1011D00090914901892B09F0B0C0809162019091F2
:1011E0006301019690936301809362012091120143
:1011F00030911301809162019091630182179307EE
:1012000054F0109263011092620181E090E090939B
:101210006501809364014130510509F093C08091CC
:10122000500190915101019709F08CC080911401F7
:1012300090911501019709F085C080914801909126
:101240004901892B09F07EC080915E0190915F0178
:10125000019690935F0180935E0180915E01909171
:101260005F018217930754F010925F0110925E01A4
:1012700081E090E09093610180936001DF91CF91D4
:1012800008951092470110924601CDCE509A68EE13
:1012900073E080E090E062D41AB814B881E090E086
:1012A00090930F0180930E0182E090E090930D01E6
:1012B00080930C0183E090E090930B0180930A01EE
:1012C00084E090E0909309018093080185E090E02C
:1012D000909307018093060186E090E090930501CA
:1012E0008093040187E090E09093030180930201D2
:1012F00090930101809300011092450110924401E6
:10130000109243011092420110924101109240014B
:1013100010923F0110923E0110923D0110923C014B
:1013200010923B0110923A0110923901109238014B
:1013300010923701109236012ECF10926301109255
:10134000620154CF10925F0110925E0186CF8091AE
:10135000500190915101209174013091750121301B
:10136000310551F58230910539F510920F01109237
:101370000E0110920D0110920C0110920B011092AF
:101380000A011092090110920801109207011092AF
:1013900006011092050110920401109203011092AF
:1013A0000201109201011092000130936701209315
:1013B000660181E08AB90895209166013091670144
:1013C00021603093670120936601209124013091C0
:1013D00025012130310599F42091340130913501F6
:1013E000232B69F48130910551F420910E01309145
:1013F0000F012F5F3F4F30930F0120930E0120917B
:101400000E0130910F012830310524F010920F01A8
:1014100010920E01209122013091230121303105DB
:1014200099F42091320130913301232B69F48130FA
:10143000910551F420910C0130910D012F5F3F4F28
:1014400030930D0120930C0120910C0130910D017E
:101450002830310524F010920D0110920C012091DA
:101460002001309121012130310599F42091300182
:1014700030913101232B69F48130910551F4209191
:101480000A0130910B012F5F3F4F30930B012093E6
:101490000A0120910A0130910B012830310524F016
:1014A00010920B0110920A0120911E0130911F0130
:1014B0002130310599F420912E0130912F01232BF9
:1014C00069F48130910551F42091080130910901AE
:1014D0002F5F3F4F309309012093080120910801AD
:1014E000309109012830310524F010920901109241
:1014F000080120911C0130911D012130310599F422
:1015000020912C0130912D01232B69F4813091051C
:1015100051F420910601309107012F5F3F4F309326
:101520000701209306012091060130910701283020
:10153000310524F0109207011092060120911A0142
:1015400030911B012130310599F420912A0130910D
:101550002B01232B69F48130910551F42091040172
:10156000309105012F5F3F4F309305012093040117
:1015700020910401309105012830310524F01092AA
:1015800005011092040120911801309119012130B8
:101590003105B9F42091280130912901232B89F4D8
:1015A00020914E0130914F012130310551F42091AD
:1015B0000201309103012F5F3F4F309303012093CD
:1015C000020120910201309103012830310524F0FD
:1015D000109203011092020120911601309117011F
:1015E00021303105B9F42091260130912701232BB8
:1015F00089F420914E0130914F012130310551F491
:1016000020910001309101012F5F3F4F3093010184
:101610002093000120910001309101012830310513
:1016200024F01092010110920001019731F0809195
:101630004E0190914F01019721F410926701109291
:101640006601809166018AB980917401909175015B
:10165000019791F58091140190911501892B61F505
:10166000109265011092640160910E0190E080E09B
:10167000FED460910C0181E090E0F9D460910A0100
:1016800082E090E0F4D46091080183E090E0EFD430
:101690006091060184E090E0EAD46091040185E065
:1016A00090E0E5D4609102018DE090E0E0D460919B
:1016B00000018EE090E0DBC408958091500190918C
:1016C000510120917401309175012130310551F59E
:1016D0008130910539F51092450110924401109224
:1016E0004301109242011092410110924001109268
:1016F0003F0110923E0110923D0110923C01109268
:101700003B0110923A011092390110923801109267
:10171000370110923601909367018093660181E052
:101720008AB9089520916601309167012160309354
:101730006701209366012091240130912501213019
:10174000310599F42091340130913501232B69F44E
:101750008130910551F420914401309145012F5F72
:101760003F4F309345012093440120914401309133
:1017700045012730310524F01092450110924401B3
:1017800020912201309123012130310599F42091DB
:10179000320130913301232B69F48130910551F4EA
:1017A00020914201309143012F5F3F4F309343011D
:1017B00020934201209142013091430127303105AD
:1017C00024F01092430110924201209120013091A7
:1017D00021012130310599F42091300130913101FE
:1017E000232B69F48130910551F42091400130910F
:1017F00041012F5F3F4F30934101209340012091E1
:101800004001309141012730310524F0109241010F
:101810001092400120911E0130911F0121303105AD
:1018200099F420912E0130912F01232B69F48130FE
:10183000910551F420913E0130913F012F5F3F4FC0
:1018400030933F0120933E0120913E0130913F01B2
:101850002730310524F010923F0110923E01209173
:101860001C0130911D012130310599F420912C018A
:1018700030912D01232B69F48130910551F4209191
:101880003C0130913D012F5F3F4F30933D0120934C
:101890003C0120913C0130913D012730310524F07D
:1018A00010923D0110923C0120911A0130911B01D0
:1018B0002130310599F420912A0130912B01232BFD
:1018C00069F48130910551F420913A0130913B0146
:1018D0002F5F3F4F30933B0120933A0120913A0113
:1018E00030913B012730310524F010923B011092DA
:1018F0003A01209118013091190121303105B9F4D4
:101900002091280130912901232B89F420914E0147
:1019100030914F012130310551F42091380130913F
:1019200039012F5F3F4F30933901209338012091C7
:101930003801309139012730310524F010923901F6
:101940001092380120911601309117012130310594
:10195000B9F42091260130912701232B89F420919D
:101960004E0130914F012130310551F42091360163
:10197000309137012F5F3F4F30933701209336016D
:1019800020913601309137012730310524F0109233
:10199000370110923601019731F080914E019091FC
:1019A0004F01019721F41092670110926601809116
:1019B00066018AB98091740190917501019791F542
:1019C0008091140190911501892B61F510926101AC
:1019D000109260016091440187E090E048D36091EB
:1019E000420188E090E043D36091400189E090E0BB
:1019F0003ED360913E018AE090E039D360913C0192
:101A00008BE090E034D360913A018CE090E02FD3EA
:101A1000609138018FE090E02AD36091360180E137
:101A200090E025C3089580914A0190914B01892B44
:101A300009F48DDA80914A0190914B01019769F484
:101A4000D8D7BCDA8091640190916501019761F467
:101A500010926101109260017ADC8091680184B972
:101A6000809166018AB90895809160019091610129
:101A7000019711F422DEF1CFC8D33FD6EECF1F92EB
:101A80000F920FB60F9211242F933F938F939F9332
:101A9000AF93BF9380918F0190919001A09191019C
:101AA000B091920130918E0126E0230F2D3758F529
:101AB0000296A11DB11D20938E0180938F019093FA
:101AC0009001A0939101B093920180919301909124
:101AD0009401A0919501B09196010196A11DB11DAF
:101AE0008093930190939401A0939501B0939601F4
:101AF000BF91AF919F918F913F912F910F900FBE0A
:101B00000F901F90189529E8230F0396A11DB11D72
:101B1000D2CF3FB7F8948091930190919401A09116
:101B20009501B091960126B5A89B05C02F3F19F0ED
:101B30000196A11DB11D3FBFBA2FA92F982F88274D
:101B4000BC01CD01620F711D811D911D43E0660F27
:101B5000771F881F991F4A95D1F708958F929F92FA
:101B6000AF92BF92CF92DF92EF92FF926B017C0116
:101B7000D0DF4B015C01C114D104E104F104D9F0C0
:101B800072D0C7DF681979098A099B09683E7340DA
:101B90008105910580F321E0C21AD108E108F1081E
:101BA00088EE880E83E0981EA11CB11CC114D104DC
:101BB000E104F10431F7FF90EF90DF90CF90BF90F8
:101BC000AF909F908F9008958330910528F0880FF3
:101BD000991F04970197F1F70895789484B582606E
:101BE00084BD84B5816084BD85B5826085BD85B5C1
:101BF000816085BDEEE6F0E0808181608083E1E870
:101C0000F0E01082808182608083808181608083A7
:101C1000E0E8F0E0808181608083E1EBF0E08081AA
:101C200084608083E0EBF0E0808181608083EAE77C
:101C3000F0E0808184608083808182608083808105
:101C40008E7F80838081806880831092C100089598
:101C50000895C3DFFDDF0CD2C0E0D0E0E4DE2097C2
:101C6000E9F3CED1FBCF0895F999FECF92BD81BDA6
:101C7000F89A992780B50895262FF999FECF1FBAB3
:101C800092BD81BD20BD0FB6F894FA9AF99A0FBEA5
:081C900001960895F894FFCFBE
:101C98000700070006000500040003000200010019
:041CA800DC00A000BC
:00000001FF
