:1000000019C033C032C031C030C02FC02EC02DC087
:100010002CC02BC02AC029C028C027C026C025C09C
:1000200018CA23C022C021C020C01FC01EC01DC0CE
:100030001CC01BC011241FBECFEFD4E0DEBFCDBF5C
:1000400011E0A0E0B1E0E6E5F6E102C005900D9216
:10005000A031B107D9F721E0A0E1B1E001C01D92C4
:10006000A738B207E1F7EBD9F4CACACFDCCAE3CAB2
:10007000CF93DF93399A389A3D9A3C9A3A9A3B9AB1
:1000800090E080E0F3DF90E090930B0180930A0111
:1000900081E090E0EBDF90E090930901809308010C
:1000A00082E090E0E3DF90E0909307018093060107
:1000B00083E090E0DBDF90E0909305018093040102
:1000C00084E090E0D3DF90E09093030180930201FD
:1000D00085E090E0CBDF90E09093010180930001F8
:1000E00086E090E0C3DF90E090933D0180933C0177
:1000F00087E090E0BBDF90E0909339018093380176
:1001000088E090E0B3DF90E0909337018093360170
:1001100089E090E0ABDF90E090933501809334016B
:100120008AE090E0A3DF90E0909333018093320166
:100130008BE090E09BDF90E0909331018093300161
:100140008CE090E093DF90E090932F0180932E015C
:10015000CCE0D0E01AB860E170E080E090E0E8D94F
:10016000509A60E170E080E090E0E2D9219791F749
:100170008CE087B9DF91CF910895A0914C01B091A7
:100180004D011196B0934D01A0934C01E0914A01AD
:10019000F0914B013196F0934B01E0934A0160914D
:1001A0004801709149016F5F7F4F709349016093DF
:1001B000480140914601509147014F5F5F4F509376
:1001C00047014093460120914401309145012F5F42
:1001D0003F4F30934501209344018091420190911B
:1001E000430101969093430180934201129724F0BA
:1001F00010924D0110924C01339724F010924B0154
:1002000010924A016430710524F010924901109255
:1002100048014630510524F01092470110924601E2
:100220002830310524F010924501109244010A97BC
:1002300024F0109243011092420180913801909174
:1002400039018130910561F480914C0190914D010B
:100250001816190674F010926F0110926E0109C001
:1002600082309105C9F480914A0190914B01029727
:1002700094F380913601909137018130910589F591
:1002800080914C0190914D01181619069CF1109225
:100290006D0110926C012EC08330910529F480917C
:1002A000480190914901E3CF8430910539F4809160
:1002B000460190914701039774F2DBCF8530910599
:1002C00039F48091440190914501049724F2D1CFF3
:1002D000069779F6809142019091430105974CF67B
:1002E000BACF82309105C9F480914A0190914B01B7
:1002F00002976CF280913401909135018130910523
:1003000099F580914C0190914D0118161906ACF1A8
:1003100010926B0110926A0130C08330910529F46C
:100320008091480190914901E3CF8430910541F4D7
:10033000809146019091470103970CF4A8CFDACF42
:100340008530910541F480914401909145010497D5
:100350000CF49DCFCFCF069769F680914201909122
:10036000430105973CF693CF82309105C9F4809103
:100370004A0190914B0102975CF280913201909179
:1003800033018130910599F580914C0190914D0197
:1003900018161906ACF1109275011092740130C054
:1003A0008330910529F48091480190914901E3CF70
:1003B0008430910541F48091460190914701039763
:1003C0000CF4A6CFDACF8530910541F48091440139
:1003D0009091450104970CF49BCFCFCF069769F617
:1003E000809142019091430105973CF691CF823074
:1003F0009105C9F480914A0190914B0102975CF2FA
:1004000080913001909131018130910599F5809171
:100410004C0190914D0118161906ACF11092730120
:100420001092720130C08330910529F48091480107
:1004300090914901E3CF8430910541F480914601C8
:100440009091470103970CF4A6CFDACF8530910540
:1004500041F4809144019091450104970CF49BCFA5
:10046000CFCF069769F6809142019091430105979D
:100470003CF691CF82309105C9F480914A01909168
:100480004B0102975CF280912E0190912F018130F7
:10049000910599F580914C0190914D01181619061E
:1004A000ACF1109271011092700130C0833091054F
:1004B00029F48091480190914901E3CF843091055E
:1004C00041F4809146019091470103970CF4A6CF27
:1004D000DACF8530910541F4809144019091450136
:1004E00004970CF49BCFCFCF069769F68091420119
:1004F0009091430105973CF691CF8230910539F4F4
:1005000080914A0190914B0102975CF208958330EB
:10051000910529F48091480190914901F5CF8430EB
:10052000910541F4809146019091470103970CF4A5
:10053000B8CF08958530910541F4809144019091A0
:10054000450104970CF4ADCF08950697F9F6809114
:1005500042019091430105970CF4A3CFD7CFCF93DD
:10056000DF93E0916C01F0916D01A0916E01B0916B
:100570006F0160916A0170916B014091740150911B
:1005800075012091720130917301809170019091F9
:100590007101E230F10579F0A230B10561F062300D
:1005A000710549F04230510531F02230310519F022
:1005B0008230910549F4C0915801D0915901C16030
:1005C000D0935901C09358016330710579F0E3303D
:1005D000F10561F0A330B10549F04330510531F028
:1005E0002330310519F08330910549F4C091580149
:1005F000D0915901C260D0935901C0935801443041
:10060000510579F0E430F10561F0A430B10549F00D
:100610006430710531F02430310519F084309105D2
:1006200049F4C0915801D0915901C460D093590147
:10063000C0935801C0916401D0916501219749F49C
:10064000C0915801D0915901C860D0935901C0930D
:1006500058018630910579F0E630F10561F0A63059
:10066000B10549F06630710531F04630510519F099
:100670002630310549F4C0915801D0915901C0612B
:10068000D0935901C09358012530310579F0E530F8
:10069000F10561F0A530B10549F06530710531F023
:1006A0004530510519F08530910549F4C091580144
:1006B000D0915901C062D0935901C0935801C091A3
:1006C0007C01D0917D01219749F4C0915601D091D0
:1006D0005701C260D0935701C0935601C091620187
:1006E000D0916301219749F4C0915601D0915701EF
:1006F000C460D0935701C0935601C0917A01D09144
:100700007B01219749F4C0915601D0915701C061F6
:10071000D0935701C0935601C0917801D0917901CF
:10072000219749F4C0915601D0915701C062D093EE
:100730005701C0935601C0917601D091770121975E
:1007400049F4C0915601D0915701C064D09357012C
:10075000C0935601119769F0319759F061307105D6
:1007600041F04130510529F02130310511F0019758
:1007700049F48091560190915701806890935701F8
:1007800080935601DF91CF91089580911C01909143
:100790001D0190932D0180932C0180911A0190915D
:1007A0001B0190932B0180932A0180911801909155
:1007B000190190932901809328018091160190914D
:1007C0001701909327018093260180911401909145
:1007D000150190932501809324018091120190913D
:1007E00013019093230180932201809168019091DD
:1007F000690190932101809320018091660190917D
:10080000670190931F0180931E0180916401909174
:10081000650190931101809310011092590110927B
:100820005801109257011092560110927D011092BA
:100830007C0110927B0110927A0110927901109242
:100840007801109277011092760110926301109254
:100850006201109265011092640110923F011092A2
:100860003E0110921D0110921C0110921B0110926A
:100870001A0110921901109218011092170110928A
:10088000160110921501109214011092130110928A
:10089000120110926F0110926E0110926D01109270
:1008A0006C0110926B0110926A0110927501109206
:1008B00074011092730110927201109271011092E2
:1008C000700183E790E46AD68BEF88B985E090E009
:1008D00065D686B18071282F30E030935B0120937C
:1008E0005A0196B19072292F30E030935D01209328
:1008F0005C0126B12170422F50E050935F0140937C
:100900005E0136B13270432F50E050936101409345
:100910006001311146C141E050E050937D014093A8
:100920007C01211143C121E030E030937B01209311
:100930007A01911140C121E030E030937901209398
:10094000780181113DC181E090E09093770180931F
:10095000760189E290E022D687EF88B981E090E0C5
:100960001DD686B1807190E090935B0180935A010F
:1009700086B1807290E090935D0180935C0186B1B6
:100980008170282F30E030935F0120935E0196B193
:100990009270292F30E03093610120936001911112
:1009A00014C120910201309103013093730120930F
:1009B000720121E030E03093150120931401811180
:1009C0000DC180910001909101019093710180937C
:1009D000700181E090E09093130180931201809167
:1009E0005C0190915D01892B09F001C180910401A6
:1009F00090910501909375018093740181E090E0DE
:100A0000909317018093160180915A0190915B0198
:100A1000892B09F0F5C081E090E090936501809307
:100A2000640183EF88B981E090E0B8D586B1807128
:100A300090E090935B0180935A0186B1807290E0C0
:100A400090935D0180935C0186B18170282F30E026
:100A500030935F0120935E0196B19270292F30E0B0
:100A600030936101209360019111CFC02091060164
:100A70003091070130936B0120936A0121E030E04F
:100A800030931901209318018111C8C08091080189
:100A90009091090190936D0180936C0181E090E049
:100AA00090931B0180931A0180915C0190915D01EC
:100AB000892B09F0BCC080910A0190910B019093A1
:100AC0006F0180936E0181E090E090931D0180930F
:100AD0001C0180915A0190915B01892B09F0B0C0F3
:100AE00081E090E0909367018093660180E490E05C
:100AF00055D58FEF88B98AE590E050D526B12071A1
:100B0000822F90E090935B0180935A0186B18072AE
:100B100090E090935D0180935C0136B13170832F3A
:100B200090E090935F0180935E0186B1827090E0C7
:100B30009093610180936001332321F010923B0177
:100B400010923A01211181C081E090E090936901F7
:100B50008093680180911C0190911D0120911A01E0
:100B600030911B01820F931F2091180130911901C0
:100B7000820F931F2091160130911701820F931F4E
:100B80002091140130911501820F931F20911201C1
:100B900030911301820F931F90933F0180933E0188
:100BA000089510927D0110927C01BBCE10927B01C2
:100BB00010927A01BECE1092790110927801C1CEC6
:100BC0001092770110927601C4CE109273011092A8
:100BD00072011092150110921401F1CE1092710160
:100BE000109270011092130110921201F8CE10921F
:100BF000750110927401109217011092160104CF22
:100C000010926501109264010CCF10926B0110924A
:100C10006A01109219011092180136CF10926D01DD
:100C200010926C0110921B0110921A013DCF10928C
:100C30006F0110926E0110921D0110921C0149CF9C
:100C4000109267011092660151CF109269011092C3
:100C5000680180CF8BEF88B980E590E09FD48FE763
:100C600088B982E090E09AD486B1807190E0909348
:100C70005B0180935A0186B1807290E090935D0190
:100C800080935C0186B18170282F30E030935F0142
:100C900020935E0196B19270292F30E0309361016C
:100CA00020936001911108C0811106C081E090E09D
:100CB00090933B0180933A0160E170E080E090E026
:100CC00037C480916401909165018130910521F4D0
:100CD000109241011092400140913E0150913F011C
:100CE00020916801309169014330510519F4813038
:100CF000910509F12130310591F440913C01509169
:100D00003D01019749F48091660190916701019737
:100D100019F44115510579F04130510561F0809188
:100D2000660190916701019781F480913C01909157
:100D30003D01029751F481E090E09093630180932C
:100D4000620110926501109264012130310509F0B1
:100D50009DC08091660190916701019709F096C04E
:100D60008091200190912101019709F08FC080911D
:100D70001E0190911F01019709F088C080914001E8
:100D800090914101019690934101809340012091FF
:100D900040013091410180910C0190910D01281783
:100DA0003907B4F0109241011092400180913C014A
:100DB00090913D010196833091050CF06CC09093A9
:100DC0003D0180933C0160913C0186E090E04FD969
:100DD00040916401509165014130510509F060C0B6
:100DE00080913E0190913F01029709F059C0809196
:100DF000100190911101019709F052C080915201A8
:100E00009091530101969093530180935201209148
:100E10000E0130910F018091520190915301821780
:100E2000930754F0109253011092520181E090E028
:100E3000909355018093540141305105B1F5809153
:100E40003E0190913F01019781F5809110019091B1
:100E50001101019751F580914E0190914F0101963A
:100E600090934F0180934E0180914E0190914F01DC
:100E70008217930754F010924F0110924E0181E0B7
:100E800090E0909351018093500108951092410198
:100E9000109240017CCF10923D0110923C0193CF03
:100EA0001092530110925201B2CF10924F01109242
:100EB0004E01DACF80913E0190913F012091640173
:100EC000309165012130310511F582309105F9F439
:100ED00010920B0110920A01109209011092080160
:100EE0001092070110920601109205011092040160
:100EF0001092030110920201109201011092000160
:100F0000309357012093560181E08AB908952091CA
:100F100056013091570121603093570120935601BB
:100F200020911C0130911D012130310599F420914F
:100F30002C0130912D01232B69F48130910551F45E
:100F400020910A0130910B012F5F3F4F30930B012D
:100F500020930A0120910A0130910B0127303105BD
:100F600024F010920B0110920A0120911A01309185
:100F70001B012130310599F420912A0130912B0178
:100F8000232B69F48130910551F4209108013091AF
:100F900009012F5F3F4F30930901209308012091F1
:100FA0000801309109012730310524F01092090120
:100FB000109208012091180130911901213031055A
:100FC00099F42091280130912901232B69F4813073
:100FD000910551F420910601309107012F5F3F4F99
:100FE00030930701209306012091060130910701FB
:100FF0002730310524F0109207011092060120914C
:101000001601309117012130310599F42091260104
:1010100030912701232B69F48130910551F42091FF
:101020000401309105012F5F3F4F3093050120935C
:10103000040120910401309105012730310524F08D
:1010400010920501109204012091140130911501B4
:101050002130310599F42091240130912501232B71
:1010600069F48130910551F420910201309103011E
:101070002F5F3F4F30930301209302012091020123
:10108000309103012730310524F0109203011092B2
:10109000020120911201309113012130310599F4A0
:1010A0002091220130912301232B69F48130910595
:1010B00051F420910001309101012F5F3F4F309397
:1010C000010120930001209100013091010127309E
:1010D000310524F01092010110920001019721F4D2
:1010E0001092570110925601809156018AB9809151
:1010F000640190916501019741F5809110019091F3
:101100001101892B11F51092550110925401609133
:101110000A0190E080E0ABD76091080181E090E0A7
:10112000A6D76091060182E090E0A1D7609104010A
:1011300083E090E09CD76091020184E090E097D733
:101140006091000185E090E092C7089580913E0192
:1011500090913F012091640130916501213031056A
:1011600011F581309105F9F410923901109238018E
:10117000109237011092360110923501109234010D
:10118000109233011092320110923101109230010D
:1011900010922F0110922E019093570180935601C7
:1011A00081E08AB90895209156013091570121605C
:1011B000309357012093560120911C0130911D015D
:1011C0002130310599F420912C0130912D01232BF0
:1011D00069F48130910551F4209138013091390141
:1011E0002F5F3F4F30933901209338012091380110
:1011F000309139012730310524F0109239011092D5
:10120000380120911A0130911B012130310599F4E8
:1012100020912A0130912B01232B69F48130910513
:1012200051F420913601309137012F5F3F4F3093B9
:101230003701209336012091360130913701273054
:10124000310524F0109237011092360120911801D7
:10125000309119012130310599F420912801309104
:101260002901232B69F48130910551F42091340137
:10127000309135012F5F3F4F30933501209334017A
:1012800020913401309135012730310524F010923E
:10129000350110923401209116013091170121304F
:1012A000310599F42091260130912701232B69F40F
:1012B0008130910551F420913201309133012F5F3B
:1012C0003F4F30933301209332012091320130910E
:1012D00033012730310524F010923301109232018E
:1012E00020911401309115012130310599F420919C
:1012F000240130912501232B69F48130910551F4AB
:1013000020913001309131012F5F3F4F30933101F7
:101310002093300120913001309131012730310587
:1013200024F010923101109230012091120130917D
:1013300013012130310599F42091220130912301CC
:10134000232B69F48130910551F420912E013091C5
:101350002F012F5F3F4F30932F0120932E012091BB
:101360002E0130912F012730310524F010922F01EA
:1013700010922E01019721F41092570110925601FC
:10138000809156018AB9809164019091650101971D
:1013900041F58091100190911101892B11F5109266
:1013A0005101109250016091380187E090E05FD6C2
:1013B0006091360188E090E05AD66091340189E06E
:1013C00090E055D6609132018AE090E050D660916D
:1013D00030018BE090E04BD660912E018CE090E0E4
:1013E00046C6089580913A0190913B01892B09F4FA
:1013F00031DC80913A0190913B01019769F4C5D9A4
:1014000060DC8091540190915501019761F4109234
:101410005101109250014EDD8091580184B98091A4
:1014200056018AB908958091500190915101019718
:1014300011F48CDEF1CFA1D692D8EECF0895B7D0BB
:10144000FDDF16D6C0E0D0E0CDDF2097E9F3D8D598
:10145000FBCF1F920F920FB60F9211242F933F9341
:101460008F939F93AF93BF9380917F019091800161
:10147000A0918101B091820130917E0126E0230F7D
:101480002D3758F50296A11DB11D20937E01809342
:101490007F0190938001A0938101B093820180919C
:1014A000830190918401A0918501B09186010196FC
:1014B000A11DB11D8093830190938401A0938501A8
:1014C000B0938601BF91AF919F918F913F912F91E2
:1014D0000F900FBE0F901F90189529E8230F0396C9
:1014E000A11DB11DD2CF3FB7F89480918301909197
:1014F0008401A0918501B091860126B5A89B05C005
:101500002F3F19F00196A11DB11D3FBFBA2FA92F82
:10151000982F8827BC01CD01620F711D811D911D7F
:1015200043E0660F771F881F991F4A95D1F70895EA
:101530008F929F92AF92BF92CF92DF92EF92FF92E3
:101540006B017C01D0DF4B015C01C114D104E104CB
:10155000F104D9F067D0C7DF681979098A099B09B6
:10156000683E73408105910580F321E0C21AD108DD
:10157000E108F10888EE880E83E0981EA11CB11CDA
:10158000C114D104E104F10431F7FF90EF90DF9032
:10159000CF90BF90AF909F908F900895833091052A
:1015A00028F0880F991F04970197F1F70895789410
:1015B00084B5826084BD84B5816084BD85B5826058
:1015C00085BD85B5816085BDEEE6F0E080818160F6
:1015D0008083E1E8F0E010828081826080838081F6
:1015E00081608083E0E8F0E0808181608083E1EBCE
:1015F000F0E0808184608083E0EBF0E080818160B6
:101600008083EAE7F0E0808184608083808182606B
:10161000808380818E7F8083808180688083109228
:10162000C10008950895F999FECF92BD81BDF89A41
:10163000992780B50895262FF999FECF1FBA92BD3C
:1016400081BD20BD0FB6F894FA9AF99A0FBE0196A3
:061650000895F894FFCF9D
:10165600060005000400030002000100DC00A000F3
:00000001FF
